:10092E0047524F554E4420464C4F4F520D0A0046EB
:10093E004952535420464C4F4F520D0A00534543D3
:10094E004F4E4420464C4F4F520D0A0054484952C8
:10095E004420464C4F4F520D0A00464F55525448B4
:10096E0020464C4F4F520D0A0046494654482046E9
:10097E004C4F4F520D0A00554E4B4E4F574E204680
:10098E004C4F4F520D0A004649524520414C45529C
:10099E00540D0A0054414D50455220414C4552547D
:0309AE000D0A002F
:080BAE000213000A0215000AFF
:0E0BA000758920758DFD759850D28ED29922E0
:080BB7008F993099FDC29922CB
:100B2E008B0E8A0F8910AB0EAA0FA910120B8760BD
:100B3E00130510E5107002050F14F9120B87FF1242
:050B4E000BB780E2225C
:0D0AF900F5A0120B06E5A0540F4420F5A057
:100B0600E4FFFEE4FDFCC3ED9516E5156480F8EC04
:100B160064809850070DBD00010C80EA0FBF0001EC
:070B26000EBE01DFBFF4DC8D
:010B2D0022A5
:040A9A008E0E8F0F1E
:100A9E007B017A00D3EB950FE50E6480F8EA648053
:100AAE00985037900000E5A0540F4410120AF9E553
:100ABE00A0540F4440F5A0120B06E5A0540F44803D
:100ACE00F5A0120B06A3E582640B458370D8E512E0
:100ADE002BF5A00BBB00010A80BAE50F2512F5120B
:0A0AEE00E50E3511F511AE0EAF0F45
:010AF80022DB
:040A2E008E0E8F0F8A
:100A32007B017A00D3EB950FE50E6480F8EA6480BF
:100A4200985043900000D3E5829514E5136480F832
:100A5200E5836480985022E5A0540F4480F5A012EB
:100A62000B06E5A0540F4440120AF9E5A0540F44C6
:100A720010F5A0120B06A380CDC3E5129BF5A00BC7
:100A8200BB00010A80AEC3E512950FF512E5119580
:070A92000EF511AE0EAF0FCF
:010A9900223A
:040800008E0A8F0BC2
:10080400D3E50B9512E5116480F8E50A64809840FD
:1008140012E50B9512F50DE50A9511F50CAF0DFED9
:10082400120A9AC3E50B9512E5116480F8E50A648F
:1008340080985013C3E512950BF50DE511950AF553
:100844000CAF0DFE120A2EE50A7045E50B14601874
:1008540014601D14602214602714602C2405703069
:100864007BFF7A09792E802E7BFF7A09793D8026D9
:100874007BFF7A09794B801E7BFF7A09795A8016AF
:100884007BFF7A097968800E7BFF7A097977800685
:0D0894007BFF7A097985120B2EAE0AAF0B9F
:0108A1002234
:030BBF00D29522AA
:030BC200C29522B7
:100B5300209317120BBF7BFF7A097995120B2EE4B2
:0B0B6300FFFE120800120BC280FE22F1
:100B6E00209415120BBF7BFF7A0979A2120B2EE48B
:090B7E00FFFE120800120BC22256
:1009B100E4F511F5128512A0120BA0120B53120BC4
:1009C1006EAF80EF64017009F508F509FFFE1208AA
:1009D10000AF80EF6402700BF5087509017F01FE1D
:1009E100120800AF80EF6404700BF5087509027FEF
:1009F10002FE120800AF80EF6408700BF50875095C
:100A0100037F03FE120800AF80EF6410700BF5083E
:100A11007509047F04FE120800AF80EF6420709B0B
:0D0A2100F5087509057F05FE120800808E9E
:030000000208A251
:0C08A200787FE4F6D8FD7581160208E9A5
:100B8700BB010689828A83E0225002E722BBFE026C
:090B9700E32289828A83E493229F
:1008AE000209B1E493A3F8E493A34003F68001F2A6
:1008BE0008DFF48029E493A3F85407240CC8C3334B
:1008CE00C4540F4420C8834004F456800146F6DF1A
:1008DE00E4800B0102040810204080900BAEE47EF1
:1008EE00019360BCA3FF543F30E509541FFEE4930F
:1008FE00A360010ECF54C025E060A840B8E493A3D6
:10090E00FAE493A3F8E493A3C8C582C8CAC583CA00
:10091E00F0A3C8C582C8CAC583CADFE9DEE780BEB8
:010BB600003E
:00000001FF
